:020000040800F2
:1000000000180020610600083506000837060008C1
:1000100000000000000000000000000000000000E0
:100020000000000000000000000000003906000889
:1000300000000000000000003B0600083D0600082C
:10004000B106000800000000B1060008B106000873
:10005000B1060008B1060008B10600084506000810
:1000600000000000B1060008B1060008B106000853
:10007000B1060008B1060008B10600080000000043
:10008000B10600080000000000000000B1060008F2
:1000900000000000B1060008B1060008B106000823
:1000A00000000000B106000800000000B1060008D2
:1000B000B106000800000000000000000000000081
:1000C00010B5064C2378002B07D1054B002B02D02E
:1000D000044800E000BF0123237010BD0C00002085
:1000E00000000000F4140008044B10B5002B03D0EE
:1000F0000349044800E000BF10BDC04600000000F6
:1001000010000020F414000802B4714649084900A8
:10011000095C49008E4402BC7047C0460022430877
:100120008B4274D303098B425FD3030A8B4244D3BF
:10013000030B8B4228D3030C8B420DD3FF22090201
:1001400012BA030C8B4202D31212090265D0030BC0
:100150008B4219D300E0090AC30B8B4201D3CB03B6
:10016000C01A5241830B8B4201D38B03C01A5241F8
:10017000430B8B4201D34B03C01A5241030B8B42FA
:1001800001D30B03C01A5241C30A8B4201D3CB02E5
:10019000C01A5241830A8B4201D38B02C01A5241CA
:1001A000430A8B4201D34B02C01A5241030A8B42CD
:1001B00001D30B02C01A5241CDD2C3098B4201D3E5
:1001C000CB01C01A524183098B4201D38B01C01A63
:1001D000524143098B4201D34B01C01A52410309DA
:1001E0008B4201D30B01C01A5241C3088B4201D389
:1001F000CB00C01A524183088B4201D38B00C01A36
:10020000524143088B4201D34B00C01A5241411A5C
:1002100000D20146524110467047FFE701B5002069
:1002200000F006F802BDC0460029F7D076E7704717
:100230007047C046F8B500240600012000F080FA9F
:1002400025000327300000F0C1FB60400A4C0B4B37
:100250004443E418A4B2200901356040192D05D1AA
:100260000621FFF7E1FF0131C8B2F8BD162DE9DD27
:10027000384000F065FAE5E705080000CB300000E3
:1002800010B5002204008021234800F03FFE8021A9
:10029000A02000224901C00500F038FE0022042100
:1002A0001E4800F033FE8021A0200022C005490036
:1002B00000F02CFE601E052809D80122FFF724FF5C
:1002C0001A031508101F8021134800F01FFE10BDEF
:1002D0008021114800F01AFE012204210F48F4E7A2
:1002E00080210D4800F012FE012204210B4800F08D
:1002F0000DFE012280214900A020C005E5E78021F4
:10030000054800F003FE01220421044800F0FEFD30
:10031000802101224901EFE7000400500014005041
:1003200000B58DB01822002106A801F0DBF80021ED
:100330001422684601F0D6F802230593FE33089391
:10034000A0239B010993402305A80A9300F0FAFD1E
:10035000011E01D072B6FEE70723019002900390C0
:1003600004906846009300F05DFF002801D072B64B
:10037000FEE70DB000BD0000F0B502278DB000F023
:10038000C1F9FFF7CDFF1422002107A801F0AAF858
:10039000202101266E4C6F48636B00253B4363634D
:1003A000636B3B400193019B626B0A436263636B27
:1003B00000220B400293029B636B60313343636303
:1003C000636B33400393039B00F0A0FD00220421E4
:1003D000614800F09BFD8821A02000224901C00552
:1003E00000F094FD80235B4807A9079308960995C0
:1003F0000A9500F0D9FC0423574807A907930896EB
:1004000009950A9500F0D0FC8822A020520107A986
:10041000C0050792089609950A9500F0C5FC80234F
:10042000A0209B0107934D4B07A9C005089309978E
:1004300000F0BAFC280000F095F92A0029000720F6
:1004400000F062FC072000F089FC0C22290004A8BF
:1004500001F048F8636BA02033436363636BC0050E
:1004600033400093009B8023DB010793032307A9FC
:100470000893099500F098FC394C3A4B2000236012
:100480000423636123002C331D70230025833C3338
:100490006560A560E5602561A676E6616562A56296
:1004A00025636563A5631D70E56400F065F9A842E6
:1004B00001D072B6FEE72C4B0590069004A92000EF
:1004C000049300F087FA002801D072B6FEE72000FE
:1004D00000F0ECFB300000F033F92000FFF7AAFE3B
:1004E0000600FFF7CDFE214B1B78002BFBD000252B
:1004F0002F002000FFF79EFE2D1820000137EDB2DF
:10050000FFF798FEB84201DD032FF2D1002DEAD0AB
:10051000164B1B78002B0CD00023144A20001370BC
:10052000FFF788FE2D182B1CEDB2322D00D9322397
:10053000DDB22000FFF77EFE07008642F9D0FFF70C
:100540009FFE013D372000F0FBF83E00EDB2DDE7F5
:100550000010024000040050001400500000111070
:100560002C0000200024014000400038280000201A
:100570000122014B1A7070472800002072B6FEE776
:1005800001200A4B82B0196C0143196480211A6C56
:10059000490502400092009ADA6B0A43DA63DB6B8A
:1005A0000B400193019B02B07047C046001002400F
:1005B00010B504008EB01422002102A800F092FFB2
:1005C0001C22002107A800F08DFF184B22689A42D8
:1005D0002AD1802307A8DB01079300F0D5FE00286D
:1005E00001D0FFF7CBFF8020114B4003196C002492
:1005F0000143196401211A6C02400092009A5A6B5F
:10060000A0200A435A635B6BC0050B400193019B1A
:100610008023DB010293032302A90393049400F0D7
:10062000C3FB200000F09EF80EB010BD0024014076
:1006300000100240FEE7FEE77047704710B500F07B
:100640006DF810BD802010B5800100F067FC10BD72
:100650008022024B12059A607047C04600ED00E010
:100660000D488546002103E00C4B5B584350043194
:100670000B480C4B42189A42F6D30B4A02E0002377
:1006800013600432094B9A42F9D3FFF7E1FF00F0FF
:1006900005FFFFF771FEFEE7001800205415000863
:1006A000000000200C0000200C000020940000201E
:1006B000FEE70000104B70B519680500002901D154
:1006C000012070BDFA208000FFF728FD0B4B0100D0
:1006D0001868FFF723FD00F04DFB041EF0D1032D39
:1006E000EED8020001202900404200F00DFB044B2F
:1006F00020001D60E5E7C046040000200000002047
:100700000800002010B50320FFF7D4FF041E03D11A
:10071000FFF736FF200010BD0124FBE7034A044920
:10072000136809685B1813607047C046900000208A
:1007300004000020014B18687047C046900000205C
:1007400070B50400FFF7F6FF0500631C02D0044BF0
:100750001B68E418FFF7EEFF401BA042FAD370BD00
:1007600004000020014BD8637047C04600000140E0
:1007700080684007C00F70470023F0B585B00400C3
:1007800001250393984200D1B9E0856D9D4205D1C2
:10079000FFF70EFF23005433E5651D7080232668A4
:1007A0005B05B2681A4200D1ACE0B3680025DB00FB
:1007B00007D410230125A26D1343A365E36D2B43DA
:1007C000E3653000FFF7D4FF1023A26D1A401043F9
:1007D000009000D0E5E0A36D744A1A400223134351
:1007E000A36523689A68D20767D4A17E277E8C46CA
:1007F0004903667E0191216BA268BF03F6030029BD
:1008000001D080214901E06802433A4301982769F9
:1008100032430243002F00DB88E07F007F08260080
:100820002C36367876001643621CD27F314339432A
:10083000012A06D16046002800D07AE080225202C8
:100840001143626A002A05D0E026A06A7600324091
:1008500002431143DE68564A16403143D96061684D
:10086000E26C8F0FBF073A43944622003C32167861
:10087000012E09D1606C226C024360460243A06CD9
:1008800002433A431643B4461A694A4E6046324020
:10089000802602431A614A005208F605B2420CD083
:1008A00080221206914208D0434E444F32683A40AB
:1008B000F027BF03394011433160072670275A697A
:1008C000616BB2430A435A615E69A26BBE43120177
:1008D00032435A612269002A33D1986A103A02439E
:1008E0009A6207225B69134099424ED10023E36567
:1008F000A36D043A93431A0001231343A365280010
:1009000005B0F0BDB2682E490A401343B3602D4BC9
:100910002D491868FFF702FC40000390039B002B51
:1009200000D142E7039B013B0393F7E78027BF0316
:1009300075E72026A76D3E43A665E66D3243E26566
:100940007FE78026B603B242CBD10F27266E300058
:10095000009A9200D04002003A400F2A0FD0009A2D
:1009600001320092082AF2D11C209A6AE269013A07
:10097000920002402C38904002003243B0E7009AC7
:10098000012AF1D1986A113AA9E71222A36D012533
:1009900093431A0010231343A365E36D2B43E365D0
:1009A000ADE7A26D01251343A365A8E7FDFEFFFF98
:1009B0000102FEFF02FCFF1F08270140FFFFC3FFEB
:1009C000E8FFFF6F00000020400D03000368186C73
:1009D000704700000023F0B587B00593030054333F
:1009E0001A7804000E000220012A00D1CFE0012570
:1009F0001D702068FFF7BCFE002800D0ECE0042248
:100A00002769736897438022019312069446019ADE
:100A10003368022A00D1BCE05902490A22680291D7
:100A200067450FD1906A01439162B1685569180218
:100A30006C4E01403140854329435161002B70DBEE
:100A40000020A1E01F21019F0F40BC460F276146F7
:100A50008F40F9430391216EB9430F000299002999
:100A600014D1980E1F310840614688400199074310
:100A70008908E069013127668142D6D86546990028
:100A8000090FA940906A039D2840CCE72B42EBD187
:100A9000022128000B42E7D1080049180B42E3D19C
:100AA00001301907E0D40130D906DDD401309906B0
:100AB000DAD401305906D7D401301906D4D4013024
:100AC000D905D1D401309905CED401305905CBD404
:100AD00001301905C8D40130D904C5D401309904B6
:100AE000C2D401305904BFD401301904BCD4013040
:100AF000D903B9D401309903B6D401305903B3D422
:100B000001301903B0D40130D902ADD401309902BB
:100B1000AAD480211800C90308400B42A4D0162093
:100B2000A2E7C025304A314916682D0435408B4272
:100B300019D180200004064282D113682C490B4051
:100B40002B43034313602B4B2B491868FFF7E6FA3E
:100B50000C23434301330593059B002B00D16FE722
:100B6000059B013BF7E725498B4200D068E78023CE
:100B70003000DB0318401E4200D061E711681C4EB4
:100B8000314029430B43136000235434237007B0D2
:100B9000F0BD674505D120685902826A490A8A4337
:100BA0008262002B00DB4BE70F4910480A68834242
:100BB00008D18023DB031A4008680D4B03401A4319
:100BC0000A603DE70D48834200D039E780200004E9
:100BD00002400B680648F1E72023A26D280013436A
:100BE000A365D1E700FFFF7F08270140000200A4B2
:100BF000FFFF3FFF00000020400D0300000400A89D
:100C00000023F7B504000193036801209A680242AB
:100C100001D00020FEBD99681F4A114207D0102361
:100C2000A26D1343A365E36D0343E365F2E79A689E
:100C30001A4D2A4010439860194B1B681B021DD4A3
:100C4000637E012BE5D0FFF775FD012607002268C2
:100C500013683342DDD19368334203D193682B404C
:100C600033439360FFF766FDC01B0228EFD91023C2
:100C7000A26D01201343A365E36DD5E7094B0A4933
:100C80001868FFF74BFA01300190019B002BD7D079
:100C9000019B013B0193F8E717000080E8FFFF7F0D
:100CA0000827014000000020400D030070B504003B
:100CB0000068FFF75DFD06000220002E1DD1250013
:100CC00054352B78012B18D0012320002B70FFF70F
:100CD00097FF002812D1A36D094A0A491A408023C0
:100CE0005B0013431C22A3652368E0651A6028702B
:100CF0009A68114004220A439A6070BD2E70FCE786
:100D0000FEF0FFFFE8FFFF7F30B5FF2503242A0038
:100D10000440E400A24089012940D243A140C3B26B
:100D200000280ADBC0240B4B80088000C018A400F8
:100D300003591A401143015130BD0F200340083BB5
:100D400005489B089B001B18D86902401143D961D4
:100D5000F2E7C04600E100E000ED00E0002805DB1E
:100D60001F2318401E3B8340014A13607047C04652
:100D700000E100E08022431E5204012093420DD284
:100D8000C021074A07485360036A09061B021B0A71
:100D90000B43036200200723906013607047C04636
:100DA00010E000E000ED00E00023F0B585B00A6837
:100DB0001400DC4001D105B0F0BD01249C40029438
:100DC00014400194029C224200D190E04A68150030
:100DD000944610229543022D11D10F27DA080724DB
:100DE00092008218166A03923A001C40A400A240A6
:100DF00096430A691740A740039A374317620322B4
:100E00005C00A2400668D7439643039662460326D9
:100E10003240A240039E013D32430260012D0FD8B3
:100E2000CA688568A2403D402A4382604568029AAC
:100E3000012695436246120932409A402A43426095
:100E40006246032A53D0C2683A408F68A740802484
:100E50003A43C26062466405224248D0254A0325CF
:100E60009C08A400A4180F221D40ED00AA40A02752
:100E7000266EFF0596430022B8420CD01E4F013269
:100E8000B84208D01D4F0132B84204D01C4F013285
:100E9000B84200D00232AA40674632432266194A5D
:100EA000019CD66F019DE4433543FF0301D4350017
:100EB00025406746D567144D019EEA6F1643BF0370
:100EC00001D42240160067460A4AEE671668019D63
:100ED0003543FF0201D4350025406746156055684B
:100EE000019E2E43BF0201D425402E0056600133DF
:100EF0005DE7C046001802400004005000080050A2
:100F0000001400500418024008180240002A01D0C2
:100F1000816170478162FCE77047000070B5084D41
:100F20000400EB68184202D0E860FFF721FB2B6950
:100F3000234203D020002C61FFF7EEFF70BDC046B6
:100F400000180240F8B5041E01D10120F8BD036865
:100F5000DB070DD423689B0753D423681B0700D5F8
:100F6000ADE0042123680B4200D0DDE00020EDE776
:100F700038228F4DAB681340082B06D12B689B039A
:100F8000E8D54368002BE5D1DFE7802243685202B1
:100F9000934211D12A6813432B60FFF7CBFB8027C4
:100FA0000600BF022B683B42D4D1FFF7C3FB801B76
:100FB0006428F7D90320C9E7A021C9028B4208D1D0
:100FC00080232968DB020B432B602B681A432A60BD
:100FD000E3E72A6877490A402A602A6876490A4086
:100FE0002A60002BD9D1FFF7A5FB80270600BF029E
:100FF0002B683B42AED0FFF79DFB801B6428F7D9DE
:10100000D8E738236A4DAA681A4221D12B685B05BC
:1010100002D5E368002B98D06A68636967491B02B0
:101020000A4013436B602B68654A134022691343DF
:101030002B602B68634A9B045B0FDA401300624A03
:101040001360624B1868FFF735FB002885D07CE7FA
:10105000E368002B20D02B68594A8027134022696F
:10106000FF0013432B6080232A685B0013432B602F
:10107000FFF760FB06002B683B4207D06A68636994
:101080004E491B020A4013436B6066E7FFF752FBB1
:10109000801B0228EFD98DE72B684D4A802713402B
:1010A0002B60FFF747FB0600FF002B683B4200D197
:1010B00053E7FFF73FFB801B0228F6D97AE7382277
:1010C0003B4DAB681340182B08D12B6E9B0700D407
:1010D00047E7A369002B00D043E736E7A269012365
:1010E000002A10D02A6E022713432B66FFF722FB3B
:1010F00006002B6E3B4200D033E7FFF71BFB801B43
:101100000228F6D956E72A6E02279A432A66FFF785
:1011100011FB06002B6E3B4200D122E7FFF70AFBD2
:10112000801B0228F6D945E73822214DAB681340D1
:10113000202B08D1EB6D9B0700D417E7A068434232
:101140005841C0B202E7A368012B11D1EA6D1343E5
:10115000EB65FFF7EFFA02260400EB6D334200D097
:1011600004E7FFF7E7FA1B4B001B9842F5D921E78C
:10117000052B05D1EB6D1943E9650123EA6DE6E71F
:101180000120EA6D8243EA65EA6D8A43EA65002B35
:10119000DFD1FFF7CFFA02260400EB6D334200D116
:1011A000E4E6FFF7C7FA0B4B001B9842F5D901E7BD
:1011B00000100240FFFFFEFFFFFFFBFFFF80FFFF6D
:1011C000FFC7FFFF006CDC020000002008000020C9
:1011D000FFFEFFFF8813000038220F4B9968114271
:1011E00005D11B680D489B045B0FD8407047996878
:1011F000114008290BD099681140202909D09B681B
:1012000000201A40182AF1D1FA20C001EEE7044864
:10121000ECE780200002E9E700100240006CDC02ED
:1012200000127A00F7B504000D00002801D101205A
:10123000FEBD07274B4E33683B408B422AD32168C3
:101240008B073BD4CB074AD4072733683B40AB42DC
:101250000AD93368BB432B433360FFF76BFA019025
:1012600033683B40AB426DD123683F4D5B0771D47F
:10127000FFF7B2FFAB683D4A1B051B0F9B009B5855
:101280001F221340D8403A4B18603A4B1868FFF7BA
:1012900011FACDE73368BB430B433360FFF74AFADB
:1012A000019033683B40AB42C9D0FFF743FA019B42
:1012B000C01A314B9842F4D90320B9E72A4A4B07A8
:1012C00006D593682D481840B0231B010343936053
:1012D00093682B480340E06803439360B2E71C2205
:1012E000214F3B689343A26813433B606268012A25
:1012F00019D13B689B039AD50721BB688B431343E5
:10130000BB60FFF717FA01903823BA681A40636888
:10131000DB009A4298D0FFF70DFA019BC01A164BDA
:101320009842F1D9C8E7002A03D13B685B05E3D4B2
:101330007DE70223032A03D1396E1942DCD176E717
:10134000F96DFAE7FFF7F6F9019BC01A0A4B9842CC
:1013500086D9B1E7AB680B4A134022691343AB60EF
:1013600086E7C04600200240001002400C1500082D
:10137000000000200800002088130000FF84FFFF09
:10138000FFF0FFFFFF8FFFFFF0B505002B68002087
:1013900085B09B0322D58022394C5205E36B0600B1
:1013A000134207D1E36B01361343E363E36B13404E
:1013B0000393039BE26DC02311009B00314F194042
:1013C0001A423BD10020E36D1F40AB691F43E76524
:1013D000012E03D1E36B2C4A1340E3632A68D30741
:1013E00006D5032426494B6DA343AC6823434B65C4
:1013F000530606D52249254C4B6D2340EC68234308
:101400004B65530406D51E496C694B6D9B009B08C8
:1014100023434B65130506D519491D4C4B6D2340DD
:101420002C6923434B65002A06DAE021144A13682D
:101430008B4369680B43136005B0F0BDAB699942FB
:10144000C0D08023E26DE06D11005B020343E365D1
:10145000E36D104839400340E365E165D307B1D53A
:10146000FFF768F901900222E36D1342AAD1FFF75A
:1014700061F9019BC01A084B9842F4D90320A7E7F1
:1014800000100240FFFCFFFFFFFFFFEFFFCFFFFF59
:10149000FF3FFFFFFFFFFEFF8813000070B500262F
:1014A0000C4D0D4C641BA410A64209D1002600F07F
:1014B00021F80A4D0A4C641BA410A64205D170BD48
:1014C000B300EB5898470136EEE7B300EB58984766
:1014D0000136F2E74C1500084C1500084C150008C1
:1014E0005015000803008218934200D1704719700C
:1014F0000133F9E7F8B5C046F8BC08BC9E46704712
:0C150000F8B5C046F8BC08BC9E46704719
:10150C0000000000000000000000000000000000CF
:10151C0000000000000000000000000000000000BF
:10152C0001000000020000000300000004000000A5
:10153C000600000007000000080000000900000081
:04154C00E9000008AA
:04155000C1000008CE
:0C155400006CDC0201000000040000003C
:040000050800066188
:00000001FF
